{
  "abi": [
    {
      "anonymous": false,
      "inputs": [
        {
          "indexed": true,
          "internalType": "address",
          "name": "newContract",
          "type": "address"
        }
      ],
      "name": "ContractCreation",
      "type": "event"
    },
    {
      "inputs": [
        {
          "internalType": "uint256",
          "name": "value",
          "type": "uint256"
        },
        {
          "internalType": "bytes",
          "name": "deploymentData",
          "type": "bytes"
        }
      ],
      "name": "performCreate",
      "outputs": [
        {
          "internalType": "address",
          "name": "newContract",
          "type": "address"
        }
      ],
      "stateMutability": "nonpayable",
      "type": "function"
    },
    {
      "inputs": [
        {
          "internalType": "uint256",
          "name": "value",
          "type": "uint256"
        },
        {
          "internalType": "bytes",
          "name": "deploymentData",
          "type": "bytes"
        },
        {
          "internalType": "bytes32",
          "name": "salt",
          "type": "bytes32"
        }
      ],
      "name": "performCreate2",
      "outputs": [
        {
          "internalType": "address",
          "name": "newContract",
          "type": "address"
        }
      ],
      "stateMutability": "nonpayable",
      "type": "function"
    }
  ],
  "bytecode": {
    "object": "0x608060405234801561001057600080fd5b506103af806100206000396000f3fe608060405234801561001057600080fd5b50600436106100365760003560e01c80634847be6f1461003b5780634c8c9ea114610077575b600080fd5b61004e61004936600461030b565b61008a565b60405173ffffffffffffffffffffffffffffffffffffffff909116815260200160405180910390f35b61004e61008536600461035b565b610161565b60008183518460200186f5905073ffffffffffffffffffffffffffffffffffffffff8116610119576040517f08c379a000000000000000000000000000000000000000000000000000000000815260206004820152601960248201527f436f756c64206e6f74206465706c6f7920636f6e74726163740000000000000060448201526064015b60405180910390fd5b60405173ffffffffffffffffffffffffffffffffffffffff8216907f4db17dd5e4732fb6da34a148104a592783ca119a1e7bb8829eba6cbadef0b51190600090a29392505050565b600081516020830184f0905073ffffffffffffffffffffffffffffffffffffffff81166101ea576040517f08c379a000000000000000000000000000000000000000000000000000000000815260206004820152601960248201527f436f756c64206e6f74206465706c6f7920636f6e7472616374000000000000006044820152606401610110565b60405173ffffffffffffffffffffffffffffffffffffffff8216907f4db17dd5e4732fb6da34a148104a592783ca119a1e7bb8829eba6cbadef0b51190600090a292915050565b7f4e487b7100000000000000000000000000000000000000000000000000000000600052604160045260246000fd5b600082601f83011261027157600080fd5b813567ffffffffffffffff8082111561028c5761028c610231565b604051601f83017fffffffffffffffffffffffffffffffffffffffffffffffffffffffffffffffe0908116603f011681019082821181831017156102d2576102d2610231565b816040528381528660208588010111156102eb57600080fd5b836020870160208301376000602085830101528094505050505092915050565b60008060006060848603121561032057600080fd5b83359250602084013567ffffffffffffffff81111561033e57600080fd5b61034a86828701610260565b925050604084013590509250925092565b6000806040838503121561036e57600080fd5b82359150602083013567ffffffffffffffff81111561038c57600080fd5b61039885828601610260565b915050925092905056fea164736f6c6343000813000a",
    "linkReferences": {}
  },
  "methodIdentifiers": {
    "performCreate(uint256,bytes)": "4c8c9ea1",
    "performCreate2(uint256,bytes,bytes32)": "4847be6f"
  },
  "id": 0
}