{
  "abi": [
    {
      "inputs": [
        {
          "internalType": "address",
          "name": "entryPointAddress",
          "type": "address"
        }
      ],
      "stateMutability": "nonpayable",
      "type": "constructor"
    },
    {
      "inputs": [],
      "name": "ENTRYPOINT",
      "outputs": [
        {
          "internalType": "address",
          "name": "",
          "type": "address"
        }
      ],
      "stateMutability": "view",
      "type": "function"
    },
    {
      "inputs": [],
      "name": "MY_ADDRESS",
      "outputs": [
        {
          "internalType": "address",
          "name": "",
          "type": "address"
        }
      ],
      "stateMutability": "view",
      "type": "function"
    },
    {
      "inputs": [],
      "name": "enableMyself",
      "outputs": [],
      "stateMutability": "nonpayable",
      "type": "function"
    },
    {
      "inputs": [
        {
          "internalType": "address",
          "name": "to",
          "type": "address"
        },
        {
          "internalType": "uint256",
          "name": "value",
          "type": "uint256"
        },
        {
          "internalType": "bytes",
          "name": "data",
          "type": "bytes"
        }
      ],
      "name": "execTransaction",
      "outputs": [],
      "stateMutability": "payable",
      "type": "function"
    },
    {
      "inputs": [
        {
          "components": [
            {
              "internalType": "address",
              "name": "sender",
              "type": "address"
            },
            {
              "internalType": "uint256",
              "name": "nonce",
              "type": "uint256"
            },
            {
              "internalType": "bytes",
              "name": "initCode",
              "type": "bytes"
            },
            {
              "internalType": "bytes",
              "name": "callData",
              "type": "bytes"
            },
            {
              "internalType": "uint256",
              "name": "callGasLimit",
              "type": "uint256"
            },
            {
              "internalType": "uint256",
              "name": "verificationGasLimit",
              "type": "uint256"
            },
            {
              "internalType": "uint256",
              "name": "preVerificationGas",
              "type": "uint256"
            },
            {
              "internalType": "uint256",
              "name": "maxFeePerGas",
              "type": "uint256"
            },
            {
              "internalType": "uint256",
              "name": "maxPriorityFeePerGas",
              "type": "uint256"
            },
            {
              "internalType": "bytes",
              "name": "paymasterAndData",
              "type": "bytes"
            },
            {
              "internalType": "bytes",
              "name": "signature",
              "type": "bytes"
            }
          ],
          "internalType": "struct UserOperation",
          "name": "userOp",
          "type": "tuple"
        },
        {
          "internalType": "bytes32",
          "name": "",
          "type": "bytes32"
        },
        {
          "internalType": "uint256",
          "name": "missingAccountFunds",
          "type": "uint256"
        }
      ],
      "name": "validateUserOp",
      "outputs": [
        {
          "internalType": "uint256",
          "name": "validationData",
          "type": "uint256"
        }
      ],
      "stateMutability": "nonpayable",
      "type": "function"
    }
  ],
  "bytecode": {
    "object": "0x60c060405234801561001057600080fd5b5060405161065638038061065683398101604081905261002f91610044565b6001600160a01b031660a05230608052610074565b60006020828403121561005657600080fd5b81516001600160a01b038116811461006d57600080fd5b9392505050565b60805160a0516105b06100a660003960008181610127015261019f0152600081816071015261027b01526105b06000f3fe60806040526004361061005a5760003560e01c8063a798b2b111610043578063a798b2b1146100eb578063ab4ed83e14610102578063e8eb3cc61461011557600080fd5b80633a756cec1461005f5780633a871cdd146100bd575b600080fd5b34801561006b57600080fd5b506100937f000000000000000000000000000000000000000000000000000000000000000081565b60405173ffffffffffffffffffffffffffffffffffffffff90911681526020015b60405180910390f35b3480156100c957600080fd5b506100dd6100d83660046103dd565b610149565b6040519081526020016100b4565b3480156100f757600080fd5b5061010061023e565b005b61010061011036600461045a565b6102df565b34801561012157600080fd5b506100937f000000000000000000000000000000000000000000000000000000000000000081565b60008061015960208601866104e1565b9050808315610232576040517f468721a700000000000000000000000000000000000000000000000000000000815273ffffffffffffffffffffffffffffffffffffffff7f0000000000000000000000000000000000000000000000000000000000000000811660048301526024820186905260806044830152600060848301819052606483015282169063468721a79060a4016020604051808303816000875af115801561020c573d6000803e3d6000fd5b505050506040513d601f19601f820116820180604052508101906102309190610503565b505b50600095945050505050565b6040517f610b592500000000000000000000000000000000000000000000000000000000815273ffffffffffffffffffffffffffffffffffffffff7f0000000000000000000000000000000000000000000000000000000000000000166004820152309063610b592590602401600060405180830381600087803b1580156102c557600080fd5b505af11580156102d9573d6000803e3d6000fd5b50505050565b6040517f468721a700000000000000000000000000000000000000000000000000000000815233908190819063468721a790610328908990899089908990600090600401610525565b6020604051808303816000875af1158015610347573d6000803e3d6000fd5b505050506040513d601f19601f8201168201806040525081019061036b9190610503565b6103d5576040517f08c379a000000000000000000000000000000000000000000000000000000000815260206004820152600960248201527f7478206661696c65640000000000000000000000000000000000000000000000604482015260640160405180910390fd5b505050505050565b6000806000606084860312156103f257600080fd5b833567ffffffffffffffff81111561040957600080fd5b8401610160818703121561041c57600080fd5b95602085013595506040909401359392505050565b803573ffffffffffffffffffffffffffffffffffffffff8116811461045557600080fd5b919050565b6000806000806060858703121561047057600080fd5b61047985610431565b935060208501359250604085013567ffffffffffffffff8082111561049d57600080fd5b818701915087601f8301126104b157600080fd5b8135818111156104c057600080fd5b8860208285010111156104d257600080fd5b95989497505060200194505050565b6000602082840312156104f357600080fd5b6104fc82610431565b9392505050565b60006020828403121561051557600080fd5b815180151581146104fc57600080fd5b73ffffffffffffffffffffffffffffffffffffffff8616815284602082015260806040820152826080820152828460a0830137600060a08483010152600060a07fffffffffffffffffffffffffffffffffffffffffffffffffffffffffffffffe0601f860116830101905060ff83166060830152969550505050505056fea164736f6c6343000813000a",
    "linkReferences": {}
  },
  "methodIdentifiers": {
    "ENTRYPOINT()": "e8eb3cc6",
    "MY_ADDRESS()": "3a756cec",
    "enableMyself()": "a798b2b1",
    "execTransaction(address,uint256,bytes)": "ab4ed83e",
    "validateUserOp((address,uint256,bytes,bytes,uint256,uint256,uint256,uint256,uint256,bytes,bytes),bytes32,uint256)": "3a871cdd"
  },
  "id": 11
}